{"abi":[{"type":"constructor","inputs":[{"name":"_contractOwner","type":"address","internalType":"address"},{"name":"_diamondCutFacet","type":"address","internalType":"address"},{"name":"_name","type":"string","internalType":"string"},{"name":"_symbol","type":"string","internalType":"string"},{"name":"_decimals","type":"uint8","internalType":"uint8"}],"stateMutability":"payable"},{"type":"fallback","stateMutability":"payable"},{"type":"receive","stateMutability":"payable"},{"type":"function","name":"example","inputs":[],"outputs":[{"name":"","type":"string","internalType":"string"}],"stateMutability":"pure"},{"type":"event","name":"DiamondCut","inputs":[{"name":"_diamondCut","type":"tuple[]","indexed":false,"internalType":"struct IDiamondCut.FacetCut[]","components":[{"name":"facetAddress","type":"address","internalType":"address"},{"name":"action","type":"uint8","internalType":"enum IDiamondCut.FacetCutAction"},{"name":"functionSelectors","type":"bytes4[]","internalType":"bytes4[]"}]},{"name":"_init","type":"address","indexed":false,"internalType":"address"},{"name":"_calldata","type":"bytes","indexed":false,"internalType":"bytes"}],"anonymous":false},{"type":"event","name":"OwnershipTransferred","inputs":[{"name":"previousOwner","type":"address","indexed":true,"internalType":"address"},{"name":"newOwner","type":"address","indexed":true,"internalType":"address"}],"anonymous":false},{"type":"error","name":"EmptyCalldata","inputs":[]},{"type":"error","name":"ImmutableFunction","inputs":[{"name":"selector","type":"bytes4","internalType":"bytes4"}]},{"type":"error","name":"InValidFacetCutAction","inputs":[]},{"type":"error","name":"InitCallFailed","inputs":[]},{"type":"error","name":"MustBeZeroAddress","inputs":[]},{"type":"error","name":"NoCode","inputs":[]},{"type":"error","name":"NoSelectorsInFacet","inputs":[]},{"type":"error","name":"NoZeroAddress","inputs":[]},{"type":"error","name":"NonEmptyCalldata","inputs":[]},{"type":"error","name":"NonExistentSelector","inputs":[{"name":"selector","type":"bytes4","internalType":"bytes4"}]},{"type":"error","name":"SameSelectorReplacement","inputs":[{"name":"selector","type":"bytes4","internalType":"bytes4"}]},{"type":"error","name":"SelectorExists","inputs":[{"name":"selector","type":"bytes4","internalType":"bytes4"}]}],"bytecode":{"object":"0x608060405260405161141538038061141583398101604081905261002291610e14565b61002b856101bf565b7fc8fcad8db84d3cc18b4c41d551ea0ee66dd599cde068d998e57d5e09332c13226100568482610f3b565b507fc8fcad8db84d3cc18b4c41d551ea0ee66dd599cde068d998e57d5e09332c13216100828382610f3b565b507fc8fcad8db84d3cc18b4c41d551ea0ee66dd599cde068d998e57d5e09332c1323805460ff191660ff8316179055604080516001808252818301909252600091602082015b604080516060808201835260008083526020830152918101919091528152602001906001900390816100c85750506040805160018082528183019092529192506000919060208083019080368337019050509050631f931c1c60e01b8160008151811061013757610137610ff9565b6001600160e01b031990921660209283029190910182015260408051606081019091526001600160a01b038816815290810160008152602001828152508260008151811061018757610187610ff9565b60200260200101819052506101b38260006040518060200160405280600081525061024260201b60201c565b50505050505050611207565b7fc8fcad8db84d3cc18b4c41d551ea0ee66dd599cde068d998e57d5e09332c132080546001600160a01b031981166001600160a01b038481169182179093556040516000805160206113f5833981519152939092169182907f8be0079c531659141344cd1fd0a4f28419497f9722a3daafe3b4186f6b6457e090600090a3505050565b60005b83518110156103d057600084828151811061026257610262610ff9565b6020026020010151602001519050600060028111156102835761028361100f565b8160028111156102955761029561100f565b036102e9576102e48583815181106102af576102af610ff9565b6020026020010151600001518684815181106102cd576102cd610ff9565b60200260200101516040015161041b60201b60201c565b6103c7565b60018160028111156102fd576102fd61100f565b0361034c576102e485838151811061031757610317610ff9565b60200260200101516000015186848151811061033557610335610ff9565b6020026020010151604001516105e560201b60201c565b60028160028111156103605761036061100f565b036103af576102e485838151811061037a5761037a610ff9565b60200260200101516000015186848151811061039857610398610ff9565b6020026020010151604001516107b360201b60201c565b60405162c5e5d760e31b815260040160405180910390fd5b50600101610245565b507f8faa70878671ccd212d20771b795c50af8fd3ff6cf27f4bde57e5d4de0aeb67383838360405161040493929190611051565b60405180910390a16104168282610879565b505050565b600081511161043d5760405163092d2fe560e41b815260040160405180910390fd5b6000805160206113f58339815191526001600160a01b0383166104735760405163ddbadd5f60e01b815260040160405180910390fd5b6001600160a01b0383166000908152600182016020526040812054906001600160601b03821690036104a9576104a98285610985565b60005b83518110156105de5760008482815181106104c9576104c9610ff9565b6020908102919091018101516001600160e01b031981166000908152918690526040909120549091506001600160a01b0316801561052b5760405163501e70c760e01b81526001600160e01b0319831660048201526024015b60405180910390fd5b6001600160e01b0319821660008181526020878152604080832080546001600160a01b03908116600160a01b6001600160601b038c16021782558c168085526001808c0185529285208054938401815585528385206008840401805463ffffffff60079095166004026101000a948502191660e08a901c94909402939093179092559390925287905281546001600160a01b031916179055836105cd81611176565b945050600190920191506104ac9050565b5050505050565b60008151116106075760405163092d2fe560e41b815260040160405180910390fd5b6000805160206113f58339815191526001600160a01b03831661063d5760405163ddbadd5f60e01b815260040160405180910390fd5b6001600160a01b0383166000908152600182016020526040812054906001600160601b0382169003610673576106738285610985565b60005b83518110156105de57600084828151811061069357610693610ff9565b6020908102919091018101516001600160e01b031981166000908152918690526040909120549091506001600160a01b0390811690871681036106f557604051631c04188b60e31b81526001600160e01b031983166004820152602401610522565b6107008582846109d6565b6001600160e01b0319821660008181526020878152604080832080546001600160a01b03908116600160a01b6001600160601b038c16021782558c168085526001808c0185529285208054938401815585528385206008840401805463ffffffff60079095166004026101000a948502191660e08a901c94909402939093179092559390925287905281546001600160a01b031916179055836107a281611176565b945050600190920191506106769050565b60008151116107d55760405163092d2fe560e41b815260040160405180910390fd5b6000805160206113f58339815191526001600160a01b0383161561080c57604051631be65fe560e21b815260040160405180910390fd5b60005b825181101561087357600083828151811061082c5761082c610ff9565b6020908102919091018101516001600160e01b031981166000908152918590526040909120549091506001600160a01b03166108698482846109d6565b505060010161080f565b50505050565b6001600160a01b0382166108ab578051156108a75760405163c21b1ab760e01b815260040160405180910390fd5b5050565b80516000036108cd57604051633011e86160e21b815260040160405180910390fd5b6001600160a01b03821630146108e6576108e682610d15565b600080836001600160a01b03168360405161090191906111a2565b600060405180830381855af49150503d806000811461093c576040519150601f19603f3d011682016040523d82523d6000602084013e610941565b606091505b5091509150816108735780511561096c578060405162461bcd60e51b815260040161052291906111be565b604051633a18f8dd60e01b815260040160405180910390fd5b61098e81610d15565b6002820180546001600160a01b0390921660008181526001948501602090815260408220860185905594840183559182529290200180546001600160a01b0319169091179055565b6001600160a01b038216610a0857604051622902d360e91b81526001600160e01b031982166004820152602401610522565b306001600160a01b03831603610a3d5760405163069731c560e41b81526001600160e01b031982166004820152602401610522565b6001600160e01b03198116600090815260208481526040808320546001600160a01b0386168452600180880190935290832054600160a01b9091046001600160601b03169291610a8c916111d8565b9050808214610b7e576001600160a01b03841660009081526001860160205260408120805483908110610ac157610ac1610ff9565b600091825260208083206008830401546001600160a01b038916845260018a019091526040909220805460079092166004026101000a90920460e01b925082919085908110610b1257610b12610ff9565b600091825260208083206008830401805463ffffffff60079094166004026101000a938402191660e09590951c929092029390931790556001600160e01b03199290921682528690526040902080546001600160a01b0316600160a01b6001600160601b038516021790555b6001600160a01b03841660009081526001860160205260409020805480610ba757610ba76111f1565b60008281526020808220600860001990940193840401805463ffffffff600460078716026101000a0219169055919092556001600160e01b031985168252869052604081208190558190036105de576002850154600090610c0a906001906111d8565b6001600160a01b0386166000908152600180890160205260409091200154909150808214610cb9576000876002018381548110610c4957610c49610ff9565b6000918252602090912001546002890180546001600160a01b039092169250829184908110610c7a57610c7a610ff9565b600091825260208083209190910180546001600160a01b0319166001600160a01b03948516179055929091168152600189810190925260409020018190555b86600201805480610ccc57610ccc6111f1565b60008281526020808220830160001990810180546001600160a01b03191690559092019092556001600160a01b0388168252600189810190915260408220015550505050505050565b803b806108a757604051633c11a9c560e21b815260040160405180910390fd5b80516001600160a01b0381168114610d4c57600080fd5b919050565b634e487b7160e01b600052604160045260246000fd5b60005b83811015610d82578181015183820152602001610d6a565b50506000910152565b600082601f830112610d9c57600080fd5b81516001600160401b03811115610db557610db5610d51565b604051601f8201601f19908116603f011681016001600160401b0381118282101715610de357610de3610d51565b604052818152838201602001851015610dfb57600080fd5b610e0c826020830160208701610d67565b949350505050565b600080600080600060a08688031215610e2c57600080fd5b610e3586610d35565b9450610e4360208701610d35565b60408701519094506001600160401b03811115610e5f57600080fd5b610e6b88828901610d8b565b606088015190945090506001600160401b03811115610e8957600080fd5b610e9588828901610d8b565b925050608086015160ff81168114610eac57600080fd5b809150509295509295909350565b600181811c90821680610ece57607f821691505b602082108103610eee57634e487b7160e01b600052602260045260246000fd5b50919050565b601f82111561041657806000526020600020601f840160051c81016020851015610f1b5750805b601f840160051c820191505b818110156105de5760008155600101610f27565b81516001600160401b03811115610f5457610f54610d51565b610f6881610f628454610eba565b84610ef4565b6020601f821160018114610f9c5760008315610f845750848201515b600019600385901b1c1916600184901b1784556105de565b600084815260208120601f198516915b82811015610fcc5787850151825560209485019460019092019101610fac565b5084821015610fea5786840151600019600387901b60f8161c191681555b50505050600190811b01905550565b634e487b7160e01b600052603260045260246000fd5b634e487b7160e01b600052602160045260246000fd5b6000815180845261103d816020860160208601610d67565b601f01601f19169290920160200192915050565b6000606082016060835280865180835260808501915060808160051b86010192506020880160005b8281101561113157868503607f19018452815180516001600160a01b0316865260208101516060870190600381106110c157634e487b7160e01b600052602160045260246000fd5b806020890152506040820151915060606040880152808251808352608089019150602084019350600092505b808310156111195783516001600160e01b031916825260209384019360019390930192909101906110ed565b50965050506020938401939190910190600101611079565b5050506001600160a01b03861660208501525082810360408401526111568185611025565b9695505050505050565b634e487b7160e01b600052601160045260246000fd5b60006001600160601b0382166002600160601b0319810161119957611199611160565b60010192915050565b600082516111b4818460208701610d67565b9190910192915050565b6020815260006111d16020830184611025565b9392505050565b818103818111156111eb576111eb611160565b92915050565b634e487b7160e01b600052603160045260246000fd5b6101df806112166000396000f3fe6080604052600436106100225760003560e01c806354353f2f146100e557610029565b3661002957005b600080356001600160e01b03191681527fc8fcad8db84d3cc18b4c41d551ea0ee66dd599cde068d998e57d5e09332c131c602081905260409091205481906001600160a01b0316806100c15760405162461bcd60e51b815260206004820181905260248201527f4469616d6f6e643a2046756e6374696f6e20646f6573206e6f74206578697374604482015260640160405180910390fd5b3660008037600080366000845af43d6000803e8080156100e0573d6000f35b3d6000fd5b3480156100f157600080fd5b506100fa610110565b6040516101079190610130565b60405180910390f35b60606040518060600160405280602b815260200161017f602b9139905090565b602081526000825180602084015260005b8181101561015e5760208186018101516040868401015201610141565b506000604082850101526040601f19601f8301168401019150509291505056fe5448495320495320414e204558414d504c45204f4620414e20494d4d555441424c452046554e4354494f4ea2646970667358221220f6e8279904861310b35ed94cebf079094852ebc920c3f3eb62a07f1da13826eb64736f6c634300081a0033c8fcad8db84d3cc18b4c41d551ea0ee66dd599cde068d998e57d5e09332c131c","linkReferences":{}},"methodIdentifiers":{"example()":"54353f2f"},"id":0}